:100000000C9446000C945D000C945D000C945D0013
:100010000C945D000C945D000C945D000C945D00EC
:100020000C945D000C945D000C945D000C945D00DC
:100030000C945D000C945D000C945D000C945D00CC
:100040000C945D000C945D000C945D000C945D00BC
:100050000C945D000C945D000C945D000C945D00AC
:100060000C945D000C945D000C945D000C945D009C
:100070000C945D000C945D000C945D000C945D008C
:100080000C945D000C945D000C945D0011241FBE67
:10009000CFEFD0E1DEBFCDBF11E0A0E0B1E0E8EFEF
:1000A000F0E000E00BBF02C007900D92A030B10756
:1000B000D9F70E9467000C947A000C9400008FEF2F
:1000C0008ABB87BB84BB82B98093610008958FEFA0
:1000D0008ABB87BB84BB82B9809361004FEF24EC5D
:1000E00039E0809B02C018BA01C048BBC901019722
:0800F000F1F7F7CFF894FFCF00
:00000001FF
